:100000000C9446000C9465000C9465000C946500FB
:100010000C9465000C9465000C9465000C946500CC
:100020000C9465000C9465000C9465000C946500BC
:100030000C9465000C94DE000C9465000C94650033
:100040000C9465000C9465000C9465000C9465009C
:100050000C9465000C9465000C9465000C9465008C
:100060000C9465000C9465000C9465000C9465007C
:100070000C9465000C9465000C9465000C9465006C
:100080000C9465000C9465000C94650011241FBE4F
:10009000CFEFD0E4DEBFCDBF11E0A0E0B1E0E4E4FB
:1000A000F5E000E00BBF02C007900D92A431B1074C
:1000B000D9F721E0A4E1B1E001C01D92A834B20754
:1000C000E1F70E94F4010C94A0020C940000CF937D
:1000D000DF9300D01F92CDB7DEB789837B836A831D
:1000E00089818A3031F48A819B81BC018DE00E9434
:1000F000670080EC90E0FC018081882F90E08072A6
:100100009927892BB1F386EC90E02981FC012083AB
:1001100080E090E00F900F900F90DF91CF910895C5
:10012000CF93DF93CDB7DEB781E890E02BE0FC0101
:10013000208388E890E02DE730E0FC0131832083C4
:100140008FE690E022E0FC01208384E890E0FC014F
:100150001182108280910E0190910F01A0911001E7
:10016000B09111018093150190931601A09317018E
:10017000B09318018FE590E02FE530E0F901208180
:100180002068FC0120830000DF91CF910895CF9378
:10019000DF93CDB7DEB781E890E0FC01108200006C
:1001A000DF91CF910895CF93DF93CDB7DEB781E094
:1001B000809314010000DF91CF9108951F920F9258
:1001C00000905F000F92112400905B000F922F931C
:1001D0003F934F935F936F937F938F939F93AF93CF
:1001E000BF93EF93FF93CF93DF93CDB7DEB78091AB
:1001F000150190911601A0911701B0911801019776
:10020000A109B1098093150190931601A0931701DC
:10021000B09318018091150190911601A0911701DA
:10022000B0911801892B8A2B8B2B91F40E94D3005B
:1002300080910E0190910F01A0911001B0911101D8
:100240008093150190931601A0931701B0931801A4
:100250000000DF91CF91FF91EF91BF91AF919F91FE
:100260008F917F916F915F914F913F912F910F905F
:1002700000925B000F9000925F000F901F90189506
:10028000CF93DF9300D000D0CDB7DEB769837A83F8
:100290008B839C8389819A81AB81BC8180930E0181
:1002A00090930F01A0931001B093110180910E0162
:1002B00090910F01A0911001B0911101809315014F
:1002C00090931601A0931701B093180100000F90AE
:1002D0000F900F900F90DF91CF910895CF93DF9300
:1002E000CDB7DEB78091400190914101892B21F576
:1002F00080911A01882349F481E08093450180911F
:100300001A018F5F80931A011CC080911A018130FD
:1003100049F482E08093450180911A018F5F8093B8
:100320001A010FC080911A01823059F484E0809341
:10033000450110921A0105C010924101109240012E
:1003400001C0000000000000DF91CF910895CF931D
:10035000DF93CDB7DEB78091460190914701892B9D
:10036000B1F480911B01882349F488E08093420115
:1003700080911B018F5F80931B010EC080911B0138
:10038000813051F41092420110921B0105C010926D
:1003900047011092460101C0000000000000DF91FB
:1003A000CF910895CF93DF93CDB7DEB7809143010E
:1003B00090914401892B71F485E290E030914501E0
:1003C00020914201230FFC012083109244011092DE
:1003D000430105C010924401109243010000000047
:1003E0000000DF91CF910895CF93DF93CDB7DEB7B3
:1003F00060970FB6F894DEBF0FBECDBF88EE93E0D6
:10040000A0E0B0E089839A83AB83BC8388EE93E05D
:10041000A0E0B0E08D839E83AF83B88788EE93E041
:10042000A0E0B0E089879A87AB87BC8784E690E03C
:10043000A0E0B0E08D879E87AF87B88B84E290E024
:100440002FEFFC01208385E290E0FC01108264E63E
:1004500070E080E090E00E9440010E9490001092C5
:1004600041011092400110924701109246011092F2
:1004700044011092430189819A81AB81BC81883EFD
:100480009340A105B10530F00E946E0119821A82D5
:100490001B821C828D819E81AF81B885883E9340EE
:1004A000A105B10530F00E94A7011D821E821F82A6
:1004B000188689859A85AB85BC85883E9340A105C1
:1004C000B10530F00E94D20119861A861B861C865F
:1004D0000000809114018823E1F310921401298116
:1004E0003A814B815C818D859E85AF85B889820F6D
:1004F000931FA41FB51F89839A83AB83BC832D816F
:100500003E814F8158858D859E85AF85B889820F44
:10051000931FA41FB51F8D839E83AF83B887298542
:100520003A854B855C858D859E85AF85B889820F20
:10053000931FA41FB51F89879A87AB87BC879BCF62
:04054000F894FFCF5D
:10054400000000020000000067000000000001003D
:0405540000000300A0
:00000001FF
